{
  "_format": "hh-sol-artifact-1",
  "contractName": "TruthAttestation",
  "sourceName": "contracts/TruthAttestation.sol",
  "abi": [
    {
      "inputs": [],
      "stateMutability": "nonpayable",
      "type": "constructor"
    },
    {
      "inputs": [],
      "name": "EnforcedPause",
      "type": "error"
    },
    {
      "inputs": [],
      "name": "ExpectedPause",
      "type": "error"
    },
    {
      "inputs": [
        {
          "internalType": "address",
          "name": "owner",
          "type": "address"
        }
      ],
      "name": "OwnableInvalidOwner",
      "type": "error"
    },
    {
      "inputs": [
        {
          "internalType": "address",
          "name": "account",
          "type": "address"
        }
      ],
      "name": "OwnableUnauthorizedAccount",
      "type": "error"
    },
    {
      "anonymous": false,
      "inputs": [
        {
          "indexed": true,
          "internalType": "bytes32",
          "name": "payloadHash",
          "type": "bytes32"
        },
        {
          "indexed": false,
          "internalType": "string",
          "name": "ipfsCid",
          "type": "string"
        },
        {
          "indexed": false,
          "internalType": "uint256",
          "name": "timestamp",
          "type": "uint256"
        },
        {
          "indexed": true,
          "internalType": "address",
          "name": "attester",
          "type": "address"
        }
      ],
      "name": "Attested",
      "type": "event"
    },
    {
      "anonymous": false,
      "inputs": [
        {
          "indexed": true,
          "internalType": "address",
          "name": "previousOwner",
          "type": "address"
        },
        {
          "indexed": true,
          "internalType": "address",
          "name": "newOwner",
          "type": "address"
        }
      ],
      "name": "OwnershipTransferred",
      "type": "event"
    },
    {
      "anonymous": false,
      "inputs": [
        {
          "indexed": false,
          "internalType": "address",
          "name": "account",
          "type": "address"
        }
      ],
      "name": "Paused",
      "type": "event"
    },
    {
      "anonymous": false,
      "inputs": [
        {
          "indexed": true,
          "internalType": "bytes32",
          "name": "payloadHash",
          "type": "bytes32"
        },
        {
          "indexed": true,
          "internalType": "address",
          "name": "revoker",
          "type": "address"
        },
        {
          "indexed": false,
          "internalType": "uint256",
          "name": "timestamp",
          "type": "uint256"
        }
      ],
      "name": "Revoked",
      "type": "event"
    },
    {
      "anonymous": false,
      "inputs": [
        {
          "indexed": false,
          "internalType": "address",
          "name": "account",
          "type": "address"
        }
      ],
      "name": "Unpaused",
      "type": "event"
    },
    {
      "inputs": [
        {
          "internalType": "bytes32",
          "name": "payloadHash",
          "type": "bytes32"
        },
        {
          "internalType": "bytes32",
          "name": "ipfsCidBytes32",
          "type": "bytes32"
        }
      ],
      "name": "attest",
      "outputs": [],
      "stateMutability": "nonpayable",
      "type": "function"
    },
    {
      "inputs": [
        {
          "internalType": "bytes32[]",
          "name": "payloadHashes",
          "type": "bytes32[]"
        },
        {
          "internalType": "bytes32[]",
          "name": "ipfsCidBatch",
          "type": "bytes32[]"
        }
      ],
      "name": "attestBatch",
      "outputs": [],
      "stateMutability": "nonpayable",
      "type": "function"
    },
    {
      "inputs": [
        {
          "internalType": "bytes32",
          "name": "",
          "type": "bytes32"
        }
      ],
      "name": "attestations",
      "outputs": [
        {
          "internalType": "bytes32",
          "name": "payloadHash",
          "type": "bytes32"
        },
        {
          "internalType": "bytes32",
          "name": "ipfsCidBytes32",
          "type": "bytes32"
        },
        {
          "internalType": "uint256",
          "name": "timestamp",
          "type": "uint256"
        },
        {
          "internalType": "address",
          "name": "attester",
          "type": "address"
        },
        {
          "internalType": "bool",
          "name": "revoked",
          "type": "bool"
        }
      ],
      "stateMutability": "view",
      "type": "function"
    },
    {
      "inputs": [],
      "name": "owner",
      "outputs": [
        {
          "internalType": "address",
          "name": "",
          "type": "address"
        }
      ],
      "stateMutability": "view",
      "type": "function"
    },
    {
      "inputs": [],
      "name": "pause",
      "outputs": [],
      "stateMutability": "nonpayable",
      "type": "function"
    },
    {
      "inputs": [],
      "name": "paused",
      "outputs": [
        {
          "internalType": "bool",
          "name": "",
          "type": "bool"
        }
      ],
      "stateMutability": "view",
      "type": "function"
    },
    {
      "inputs": [],
      "name": "renounceOwnership",
      "outputs": [],
      "stateMutability": "nonpayable",
      "type": "function"
    },
    {
      "inputs": [
        {
          "internalType": "bytes32",
          "name": "payloadHash",
          "type": "bytes32"
        }
      ],
      "name": "revoke",
      "outputs": [],
      "stateMutability": "nonpayable",
      "type": "function"
    },
    {
      "inputs": [
        {
          "internalType": "address",
          "name": "newOwner",
          "type": "address"
        }
      ],
      "name": "transferOwnership",
      "outputs": [],
      "stateMutability": "nonpayable",
      "type": "function"
    },
    {
      "inputs": [],
      "name": "unpause",
      "outputs": [],
      "stateMutability": "nonpayable",
      "type": "function"
    },
    {
      "inputs": [
        {
          "internalType": "bytes32",
          "name": "payloadHash",
          "type": "bytes32"
        }
      ],
      "name": "verify",
      "outputs": [
        {
          "internalType": "bool",
          "name": "exists",
          "type": "bool"
        },
        {
          "internalType": "uint256",
          "name": "timestamp",
          "type": "uint256"
        },
        {
          "internalType": "address",
          "name": "attester",
          "type": "address"
        },
        {
          "internalType": "bool",
          "name": "revoked",
          "type": "bool"
        }
      ],
      "stateMutability": "view",
      "type": "function"
    }
  ],
  "bytecode": "0x60806040523480156200001157600080fd5b5033600073ffffffffffffffffffffffffffffffffffffffff168173ffffffffffffffffffffffffffffffffffffffff1603620000885760006040517f1e4fbdf70000000000000000000000000000000000000000000000000000000081526004016200007f9190620001a9565b60405180910390fd5b6200009981620000a060201b60201c565b50620001c6565b60008060009054906101000a900473ffffffffffffffffffffffffffffffffffffffff169050816000806101000a81548173ffffffffffffffffffffffffffffffffffffffff021916908373ffffffffffffffffffffffffffffffffffffffff1602179055508173ffffffffffffffffffffffffffffffffffffffff168173ffffffffffffffffffffffffffffffffffffffff167f8be0079c531659141344cd1fd0a4f28419497f9722a3daafe3b4186f6b6457e060405160405180910390a35050565b600073ffffffffffffffffffffffffffffffffffffffff82169050919050565b6000620001918262000164565b9050919050565b620001a38162000184565b82525050565b6000602082019050620001c0600083018462000198565b92915050565b61167880620001d66000396000f3fe608060405234801561001057600080fd5b50600436106100a95760003560e01c80638456cb59116100715780638456cb591461012f5780638acbf78e146101395780638da5cb5b14610155578063940992a314610173578063b75c7dc6146101a7578063f2fde38b146101c3576100a9565b80633f4ba83a146100ae5780635c975abb146100b8578063715018a6146100d657806373e3ef2c146100e057806375e36616146100fc575b600080fd5b6100b66101df565b005b6100c06101f1565b6040516100cd9190610ee7565b60405180910390f35b6100de610207565b005b6100fa60048036038101906100f59190610f71565b61021b565b005b61011660048036038101906101119190611028565b6104fc565b60405161012694939291906110af565b60405180910390f35b6101376105ba565b005b610153600480360381019061014e91906110f4565b6105cc565b005b61015d610843565b60405161016a9190611134565b60405180910390f35b61018d60048036038101906101889190611028565b61086c565b60405161019e95949392919061115e565b60405180910390f35b6101c160048036038101906101bc9190611028565b6108cf565b005b6101dd60048036038101906101d891906111dd565b610a68565b005b6101e7610aee565b6101ef610b75565b565b60008060149054906101000a900460ff16905090565b61020f610aee565b6102196000610bd7565b565b610223610aee565b61022b610c9b565b818190508484905014610273576040517f08c379a000000000000000000000000000000000000000000000000000000000815260040161026a90611267565b60405180910390fd5b60005b848490508110156104f557600085858381811061029657610295611287565b5b90506020020135905060008484848181106102b4576102b3611287565b5b9050602002013590506000801b8203610302576040517f08c379a00000000000000000000000000000000000000000000000000000000081526004016102f990611302565b60405180910390fd5b6000801b8103610347576040517f08c379a000000000000000000000000000000000000000000000000000000000815260040161033e9061136e565b60405180910390fd5b600073ffffffffffffffffffffffffffffffffffffffff166001600084815260200190815260200160002060030160009054906101000a900473ffffffffffffffffffffffffffffffffffffffff1673ffffffffffffffffffffffffffffffffffffffff16036104e6576040518060a001604052808381526020018281526020014281526020013373ffffffffffffffffffffffffffffffffffffffff168152602001600015158152506001600084815260200190815260200160002060008201518160000155602082015181600101556040820151816002015560608201518160030160006101000a81548173ffffffffffffffffffffffffffffffffffffffff021916908373ffffffffffffffffffffffffffffffffffffffff16021790555060808201518160030160146101000a81548160ff0219169083151502179055509050503373ffffffffffffffffffffffffffffffffffffffff16827faa2e1b3fb7d9f62997d8180a0ef51f77ec0325f717017fc6b918db9ea48b717c6104ce84610cdc565b426040516104dd92919061140d565b60405180910390a35b50508080600101915050610276565b5050505050565b6000806000806000600160008781526020019081526020016000209050600073ffffffffffffffffffffffffffffffffffffffff168160030160009054906101000a900473ffffffffffffffffffffffffffffffffffffffff1673ffffffffffffffffffffffffffffffffffffffff1614159450806002015493508060030160009054906101000a900473ffffffffffffffffffffffffffffffffffffffff1692508060030160149054906101000a900460ff169150509193509193565b6105c2610aee565b6105ca610e21565b565b6105d4610aee565b6105dc610c9b565b600073ffffffffffffffffffffffffffffffffffffffff166001600084815260200190815260200160002060030160009054906101000a900473ffffffffffffffffffffffffffffffffffffffff1673ffffffffffffffffffffffffffffffffffffffff1614610681576040517f08c379a000000000000000000000000000000000000000000000000000000000815260040161067890611489565b60405180910390fd5b6000801b82036106c6576040517f08c379a00000000000000000000000000000000000000000000000000000000081526004016106bd90611302565b60405180910390fd5b6000801b810361070b576040517f08c379a00000000000000000000000000000000000000000000000000000000081526004016107029061136e565b60405180910390fd5b6040518060a001604052808381526020018281526020014281526020013373ffffffffffffffffffffffffffffffffffffffff168152602001600015158152506001600084815260200190815260200160002060008201518160000155602082015181600101556040820151816002015560608201518160030160006101000a81548173ffffffffffffffffffffffffffffffffffffffff021916908373ffffffffffffffffffffffffffffffffffffffff16021790555060808201518160030160146101000a81548160ff0219169083151502179055509050503373ffffffffffffffffffffffffffffffffffffffff16827faa2e1b3fb7d9f62997d8180a0ef51f77ec0325f717017fc6b918db9ea48b717c61082884610cdc565b4260405161083792919061140d565b60405180910390a35050565b60008060009054906101000a900473ffffffffffffffffffffffffffffffffffffffff16905090565b60016020528060005260406000206000915090508060000154908060010154908060020154908060030160009054906101000a900473ffffffffffffffffffffffffffffffffffffffff16908060030160149054906101000a900460ff16905085565b6108d7610aee565b6108df610c9b565b600073ffffffffffffffffffffffffffffffffffffffff166001600083815260200190815260200160002060030160009054906101000a900473ffffffffffffffffffffffffffffffffffffffff1673ffffffffffffffffffffffffffffffffffffffff1603610984576040517f08c379a000000000000000000000000000000000000000000000000000000000815260040161097b906114f5565b60405180910390fd5b6001600082815260200190815260200160002060030160149054906101000a900460ff16156109e8576040517f08c379a00000000000000000000000000000000000000000000000000000000081526004016109df90611561565b60405180910390fd5b600180600083815260200190815260200160002060030160146101000a81548160ff0219169083151502179055503373ffffffffffffffffffffffffffffffffffffffff16817fbad7982cc5cd1310cfc1c83b1e7e9bc771332036ea180c362910e4068fc5ecf642604051610a5d9190611581565b60405180910390a350565b610a70610aee565b600073ffffffffffffffffffffffffffffffffffffffff168173ffffffffffffffffffffffffffffffffffffffff1603610ae25760006040517f1e4fbdf7000000000000000000000000000000000000000000000000000000008152600401610ad99190611134565b60405180910390fd5b610aeb81610bd7565b50565b610af6610e84565b73ffffffffffffffffffffffffffffffffffffffff16610b14610843565b73ffffffffffffffffffffffffffffffffffffffff1614610b7357610b37610e84565b6040517f118cdaa7000000000000000000000000000000000000000000000000000000008152600401610b6a9190611134565b60405180910390fd5b565b610b7d610e8c565b60008060146101000a81548160ff0219169083151502179055507f5db9ee0a495bf2e6ff9c91a7834c1ba4fdd244a5e8aa4e537bd38aeae4b073aa610bc0610e84565b604051610bcd9190611134565b60405180910390a1565b60008060009054906101000a900473ffffffffffffffffffffffffffffffffffffffff169050816000806101000a81548173ffffffffffffffffffffffffffffffffffffffff021916908373ffffffffffffffffffffffffffffffffffffffff1602179055508173ffffffffffffffffffffffffffffffffffffffff168173ffffffffffffffffffffffffffffffffffffffff167f8be0079c531659141344cd1fd0a4f28419497f9722a3daafe3b4186f6b6457e060405160405180910390a35050565b610ca36101f1565b15610cda576040517fd93c066500000000000000000000000000000000000000000000000000000000815260040160405180910390fd5b565b60606000805b6020811015610d5357600060f81b848260208110610d0357610d02611287565b5b1a60f81b7effffffffffffffffffffffffffffffffffffffffffffffffffffffffffffff191614610d41578180610d39906115cb565b925050610d46565b610d53565b8080600101915050610ce2565b5060008167ffffffffffffffff811115610d7057610d6f611613565b5b6040519080825280601f01601f191660200182016040528015610da25781602001600182028036833780820191505090505b50905060005b82811015610e1657848160208110610dc357610dc2611287565b5b1a60f81b828281518110610dda57610dd9611287565b5b60200101907effffffffffffffffffffffffffffffffffffffffffffffffffffffffffffff1916908160001a9053508080600101915050610da8565b508092505050919050565b610e29610c9b565b6001600060146101000a81548160ff0219169083151502179055507f62e78cea01bee320cd4e420270b5ea74000d11b0c9f74754ebdbfc544b05a258610e6d610e84565b604051610e7a9190611134565b60405180910390a1565b600033905090565b610e946101f1565b610eca576040517f8dfc202b00000000000000000000000000000000000000000000000000000000815260040160405180910390fd5b565b60008115159050919050565b610ee181610ecc565b82525050565b6000602082019050610efc6000830184610ed8565b92915050565b600080fd5b600080fd5b600080fd5b600080fd5b600080fd5b60008083601f840112610f3157610f30610f0c565b5b8235905067ffffffffffffffff811115610f4e57610f4d610f11565b5b602083019150836020820283011115610f6a57610f69610f16565b5b9250929050565b60008060008060408587031215610f8b57610f8a610f02565b5b600085013567ffffffffffffffff811115610fa957610fa8610f07565b5b610fb587828801610f1b565b9450945050602085013567ffffffffffffffff811115610fd857610fd7610f07565b5b610fe487828801610f1b565b925092505092959194509250565b6000819050919050565b61100581610ff2565b811461101057600080fd5b50565b60008135905061102281610ffc565b92915050565b60006020828403121561103e5761103d610f02565b5b600061104c84828501611013565b91505092915050565b6000819050919050565b61106881611055565b82525050565b600073ffffffffffffffffffffffffffffffffffffffff82169050919050565b60006110998261106e565b9050919050565b6110a98161108e565b82525050565b60006080820190506110c46000830187610ed8565b6110d1602083018661105f565b6110de60408301856110a0565b6110eb6060830184610ed8565b95945050505050565b6000806040838503121561110b5761110a610f02565b5b600061111985828601611013565b925050602061112a85828601611013565b9150509250929050565b600060208201905061114960008301846110a0565b92915050565b61115881610ff2565b82525050565b600060a082019050611173600083018861114f565b611180602083018761114f565b61118d604083018661105f565b61119a60608301856110a0565b6111a76080830184610ed8565b9695505050505050565b6111ba8161108e565b81146111c557600080fd5b50565b6000813590506111d7816111b1565b92915050565b6000602082840312156111f3576111f2610f02565b5b6000611201848285016111c8565b91505092915050565b600082825260208201905092915050565b7f4172726179206c656e677468206d69736d617463680000000000000000000000600082015250565b600061125160158361120a565b915061125c8261121b565b602082019050919050565b6000602082019050818103600083015261128081611244565b9050919050565b7f4e487b7100000000000000000000000000000000000000000000000000000000600052603260045260246000fd5b7f496e76616c6964207061796c6f61642068617368000000000000000000000000600082015250565b60006112ec60148361120a565b91506112f7826112b6565b602082019050919050565b6000602082019050818103600083015261131b816112df565b9050919050565b7f496e76616c696420495046532043494400000000000000000000000000000000600082015250565b600061135860108361120a565b915061136382611322565b602082019050919050565b600060208201905081810360008301526113878161134b565b9050919050565b600081519050919050565b60005b838110156113b757808201518184015260208101905061139c565b60008484015250505050565b6000601f19601f8301169050919050565b60006113df8261138e565b6113e9818561120a565b93506113f9818560208601611399565b611402816113c3565b840191505092915050565b6000604082019050818103600083015261142781856113d4565b9050611436602083018461105f565b9392505050565b7f416c726561647920617474657374656400000000000000000000000000000000600082015250565b600061147360108361120a565b915061147e8261143d565b602082019050919050565b600060208201905081810360008301526114a281611466565b9050919050565b7f4e6f742061747465737465640000000000000000000000000000000000000000600082015250565b60006114df600c8361120a565b91506114ea826114a9565b602082019050919050565b6000602082019050818103600083015261150e816114d2565b9050919050565b7f416c7265616479207265766f6b65640000000000000000000000000000000000600082015250565b600061154b600f8361120a565b915061155682611515565b602082019050919050565b6000602082019050818103600083015261157a8161153e565b9050919050565b6000602082019050611596600083018461105f565b92915050565b7f4e487b7100000000000000000000000000000000000000000000000000000000600052601160045260246000fd5b60006115d682611055565b91507fffffffffffffffffffffffffffffffffffffffffffffffffffffffffffffffff82036116085761160761159c565b5b600182019050919050565b7f4e487b7100000000000000000000000000000000000000000000000000000000600052604160045260246000fdfea2646970667358221220acc24ca3cf78be202184e2bc7bb3e4286af43f9c2b34d260bc02bf1a937676b364736f6c63430008180033",
  "linkReferences": {},
  "deployedLinkReferences": {}
}