{
  "_format": "hh-sol-artifact-1",
  "contractName": "MockVerifier",
  "sourceName": "contracts/MockVerifier.sol",
  "abi": [
    {
      "anonymous": false,
      "inputs": [
        {
          "indexed": true,
          "internalType": "bytes32",
          "name": "payloadHash",
          "type": "bytes32"
        }
      ],
      "name": "MockVerified",
      "type": "event"
    },
    {
      "inputs": [
        {
          "internalType": "bytes32",
          "name": "payloadHash",
          "type": "bytes32"
        }
      ],
      "name": "isVerified",
      "outputs": [
        {
          "internalType": "bool",
          "name": "",
          "type": "bool"
        }
      ],
      "stateMutability": "view",
      "type": "function"
    },
    {
      "inputs": [
        {
          "internalType": "bytes32",
          "name": "",
          "type": "bytes32"
        }
      ],
      "name": "verified",
      "outputs": [
        {
          "internalType": "bool",
          "name": "",
          "type": "bool"
        }
      ],
      "stateMutability": "view",
      "type": "function"
    },
    {
      "inputs": [
        {
          "internalType": "bytes32",
          "name": "payloadHash",
          "type": "bytes32"
        }
      ],
      "name": "verify",
      "outputs": [],
      "stateMutability": "nonpayable",
      "type": "function"
    }
  ],
  "bytecode": "0x608060405234801561001057600080fd5b5061023a806100206000396000f3fe608060405234801561001057600080fd5b50600436106100415760003560e01c806375e3661614610046578063c181b27314610062578063c59e43e514610092575b600080fd5b610060600480360381019061005b91906101a1565b6100c2565b005b61007c600480360381019061007791906101a1565b61011d565b60405161008991906101e9565b60405180910390f35b6100ac60048036038101906100a791906101a1565b610146565b6040516100b991906101e9565b60405180910390f35b600160008083815260200190815260200160002060006101000a81548160ff021916908315150217905550807f524fa43334e8c283a89af866368b549ab8264a90af03c03c77c4abeae28855c360405160405180910390a250565b600080600083815260200190815260200160002060009054906101000a900460ff169050919050565b60006020528060005260406000206000915054906101000a900460ff1681565b600080fd5b6000819050919050565b61017e8161016b565b811461018957600080fd5b50565b60008135905061019b81610175565b92915050565b6000602082840312156101b7576101b6610166565b5b60006101c58482850161018c565b91505092915050565b60008115159050919050565b6101e3816101ce565b82525050565b60006020820190506101fe60008301846101da565b9291505056fea2646970667358221220ce5e43f44ba16b4874539a702cfe2f87e5d462b7f53b594e51baa4a8c086cd8b64736f6c63430008180033",
  "linkReferences": {},
  "deployedLinkReferences": {}
}